{
  "contractName": "SeedfundInvestment",
  "abi": [
    {
      "inputs": [],
      "stateMutability": "nonpayable",
      "type": "constructor"
    },
    {
      "inputs": [],
      "name": "getBalance",
      "outputs": [
        {
          "internalType": "int256",
          "name": "",
          "type": "int256"
        }
      ],
      "stateMutability": "view",
      "type": "function",
      "constant": true
    },
    {
      "inputs": [],
      "name": "getUserDeposit",
      "outputs": [
        {
          "internalType": "int256",
          "name": "",
          "type": "int256"
        }
      ],
      "stateMutability": "view",
      "type": "function",
      "constant": true
    },
    {
      "inputs": [
        {
          "internalType": "int256",
          "name": "amount",
          "type": "int256"
        }
      ],
      "name": "addDeposit",
      "outputs": [],
      "stateMutability": "nonpayable",
      "type": "function"
    },
    {
      "inputs": [],
      "name": "withdrawBalance",
      "outputs": [],
      "stateMutability": "nonpayable",
      "type": "function"
    }
  ],
  "bytecode": "0x608060405234801561001057600080fd5b5060008081905550600060018190555060028081905550600060038190555061029b8061003e6000396000f3fe608060405234801561001057600080fd5b506004361061004c5760003560e01c806312065fe0146100515780631f786b001461006f5780635fd8c7101461008d5780636037245514610097575b600080fd5b6100596100b3565b6040516100669190610129565b60405180910390f35b6100776100bc565b6040516100849190610129565b60405180910390f35b6100956100c6565b005b6100b160048036038101906100ac9190610175565b6100d7565b005b60008054905090565b6000600154905090565b600080819055506000600181905550565b806001546100e591906101d1565b6001819055506002546001541261010d5760035460015461010691906101d1565b6000819055505b50565b6000819050919050565b61012381610110565b82525050565b600060208201905061013e600083018461011a565b92915050565b600080fd5b61015281610110565b811461015d57600080fd5b50565b60008135905061016f81610149565b92915050565b60006020828403121561018b5761018a610144565b5b600061019984828501610160565b91505092915050565b7f4e487b7100000000000000000000000000000000000000000000000000000000600052601160045260246000fd5b60006101dc82610110565b91506101e783610110565b9250817f7fffffffffffffffffffffffffffffffffffffffffffffffffffffffffffffff03831360008312151615610222576102216101a2565b5b817f800000000000000000000000000000000000000000000000000000000000000003831260008312161561025a576102596101a2565b5b82820190509291505056fea264697066735822122093b87545404d999e4e6d5c84b7b0eca7a268f3cb68735dda0d4738dc59352a9564736f6c634300080d0033",
  "immutableReferences": {},
  "source": "// SPDX-License-Identifier: MIT\npragma solidity >=0.4.22 <0.9.0;\n\n// We will initialize the smart contract seedfundInvestments to have 4 variables.\ncontract SeedfundInvestment {\n    int256 balance;\n    int256 userDeposit;\n    int256 minDeposit;\n    int256 userReturnInvestment;\n\n    // Initializing smart contract variables\n    constructor() public {\n        balance = 0;\n        userDeposit = 0;\n        minDeposit = 2;\n        userReturnInvestment = 0;\n    }\n\n\n    // This function will read the balance and return it to the screen\n    function getBalance() public view returns (int256) {\n        return balance;\n    }\n\n    //This function will return the deposit amount entered by the user\n    function getUserDeposit() public view returns (int256) {\n        return userDeposit;\n    }\n    //This operation will add the deposit amount to the amount\n    function addDeposit(int256 amount) public {\n        userDeposit = userDeposit + amount;\n        if (userDeposit >= minDeposit) {\n            balance = userDeposit + userReturnInvestment;\n        }\n    }\n    //This operation will withdraw the balance from the user account\n    function withdrawBalance() public {\n        balance = 0;\n        userDeposit = 0;\n    }\n\n}",
  "sourcePath": "/home/iwanjo/Documents/seedfund_capstone/contracts/SeedfundInvestment.sol",
  "compiler": {
    "name": "solc",
    "version": "0.8.13+commit.abaa5c0e.Emscripten.clang"
  },
  "schemaVersion": "3.4.7",
  "updatedAt": "2022-04-18T12:58:06.487Z",
  "networkType": "ethereum",
  "devdoc": {
    "kind": "dev",
    "methods": {},
    "version": 1
  },
  "userdoc": {
    "kind": "user",
    "methods": {},
    "version": 1
  }
}